{
  "address": "0xB1561525828DEbadB3E32550DD341a5dfE1F1938",
  "abi": [
    {
      "inputs": [],
      "stateMutability": "nonpayable",
      "type": "constructor"
    },
    {
      "inputs": [],
      "name": "INITAL_BALANCE",
      "outputs": [
        {
          "internalType": "uint256",
          "name": "",
          "type": "uint256"
        }
      ],
      "stateMutability": "view",
      "type": "function"
    },
    {
      "inputs": [],
      "name": "SIZE",
      "outputs": [
        {
          "internalType": "uint256",
          "name": "",
          "type": "uint256"
        }
      ],
      "stateMutability": "view",
      "type": "function"
    },
    {
      "inputs": [
        {
          "internalType": "uint256",
          "name": "",
          "type": "uint256"
        }
      ],
      "name": "balances",
      "outputs": [
        {
          "internalType": "uint256",
          "name": "",
          "type": "uint256"
        }
      ],
      "stateMutability": "view",
      "type": "function"
    },
    {
      "inputs": [
        {
          "internalType": "bytes",
          "name": "",
          "type": "bytes"
        }
      ],
      "name": "checkUpkeep",
      "outputs": [
        {
          "internalType": "bool",
          "name": "upkeepNeeded",
          "type": "bool"
        },
        {
          "internalType": "bytes",
          "name": "performData",
          "type": "bytes"
        }
      ],
      "stateMutability": "view",
      "type": "function"
    },
    {
      "inputs": [
        {
          "internalType": "bytes",
          "name": "performData",
          "type": "bytes"
        }
      ],
      "name": "performUpkeep",
      "outputs": [],
      "stateMutability": "nonpayable",
      "type": "function"
    },
    {
      "inputs": [
        {
          "internalType": "uint256[]",
          "name": "indexes",
          "type": "uint256[]"
        },
        {
          "internalType": "uint256",
          "name": "amount",
          "type": "uint256"
        }
      ],
      "name": "withdraw",
      "outputs": [],
      "stateMutability": "nonpayable",
      "type": "function"
    }
  ],
  "transactionHash": "0xa7ba56e1629ced58716debf09cdc758dc44c16dcbe6ff7d435a2daed40013faf",
  "args": [],
  "numDeployments": 1,
  "solcInputHash": "cd757196460bc291faacda28472c9624",
  "bytecode": "0x6080604052348015600f57600080fd5b5060005b60648110156040576103e860008260648110602f57602e6045565b5b018190555080806001019150506013565b506074565b7f4e487b7100000000000000000000000000000000000000000000000000000000600052603260045260246000fd5b610b7e806100836000396000f3fe608060405234801561001057600080fd5b50600436106100625760003560e01c8063269e3592146100675780634585e33b146100855780634903b0d1146100a15780636e04ff0d146100d1578063bdffd28214610102578063fc89892814610120575b600080fd5b61006f61013c565b60405161007c9190610453565b60405180910390f35b61009f600480360381019061009a91906104e7565b610142565b005b6100bb60048036038101906100b69190610560565b6101aa565b6040516100c89190610453565b60405180910390f35b6100eb60048036038101906100e691906104e7565b6101c5565b6040516100f9929190610638565b60405180910390f35b61010a6102fc565b6040516101179190610453565b60405180910390f35b61013a600480360381019061013591906106be565b610301565b005b6103e881565b60008282810190610153919061085c565b905060005b81518110156101a4576103e86000838381518110610179576101786108a5565b5b602002602001015160648110610192576101916108a5565b5b01819055508080600101915050610158565b50505050565b600081606481106101ba57600080fd5b016000915090505481565b60006060600091506000805b6064811015610215576103e8600082606481106101f1576101f06108a5565b5b0154101561020857818061020490610903565b9250505b80806001019150506101d1565b5060008167ffffffffffffffff8111156102325761023161071e565b5b6040519080825280602002602001820160405280156102605781602001602082028036833780820191505090505b5090506000805b60648110156102cf576103e860008260648110610287576102866108a5565b5b015410156102c257808383815181106102a3576102a26108a5565b5b60200260200101818152505081806102ba90610903565b925050600195505b8080600101915050610267565b50816040516020016102e19190610a09565b60405160208183030381529060405293505050509250929050565b606481565b6103e88110610345576040517f08c379a000000000000000000000000000000000000000000000000000000000815260040161033c90610a88565b60405180910390fd5b60005b83838281811061035b5761035a6108a5565b5b905060200201358110156103d357606484848381811061037e5761037d6108a5565b5b9050602002013510156103c6576040517f08c379a00000000000000000000000000000000000000000000000000000000081526004016103bd90610af4565b60405180910390fd5b8080600101915050610348565b5060005b83839050811015610434578160008585848181106103f8576103f76108a5565b5b90506020020135606481106104105761040f6108a5565b5b0160008282546104209190610b14565b9250508190555080806001019150506103d7565b50505050565b6000819050919050565b61044d8161043a565b82525050565b60006020820190506104686000830184610444565b92915050565b6000604051905090565b600080fd5b600080fd5b600080fd5b600080fd5b600080fd5b60008083601f8401126104a7576104a6610482565b5b8235905067ffffffffffffffff8111156104c4576104c3610487565b5b6020830191508360018202830111156104e0576104df61048c565b5b9250929050565b600080602083850312156104fe576104fd610478565b5b600083013567ffffffffffffffff81111561051c5761051b61047d565b5b61052885828601610491565b92509250509250929050565b61053d8161043a565b811461054857600080fd5b50565b60008135905061055a81610534565b92915050565b60006020828403121561057657610575610478565b5b60006105848482850161054b565b91505092915050565b60008115159050919050565b6105a28161058d565b82525050565b600081519050919050565b600082825260208201905092915050565b60005b838110156105e25780820151818401526020810190506105c7565b60008484015250505050565b6000601f19601f8301169050919050565b600061060a826105a8565b61061481856105b3565b93506106248185602086016105c4565b61062d816105ee565b840191505092915050565b600060408201905061064d6000830185610599565b818103602083015261065f81846105ff565b90509392505050565b60008083601f84011261067e5761067d610482565b5b8235905067ffffffffffffffff81111561069b5761069a610487565b5b6020830191508360208202830111156106b7576106b661048c565b5b9250929050565b6000806000604084860312156106d7576106d6610478565b5b600084013567ffffffffffffffff8111156106f5576106f461047d565b5b61070186828701610668565b935093505060206107148682870161054b565b9150509250925092565b7f4e487b7100000000000000000000000000000000000000000000000000000000600052604160045260246000fd5b610756826105ee565b810181811067ffffffffffffffff821117156107755761077461071e565b5b80604052505050565b600061078861046e565b9050610794828261074d565b919050565b600067ffffffffffffffff8211156107b4576107b361071e565b5b602082029050602081019050919050565b60006107d86107d384610799565b61077e565b905080838252602082019050602084028301858111156107fb576107fa61048c565b5b835b818110156108245780610810888261054b565b8452602084019350506020810190506107fd565b5050509392505050565b600082601f83011261084357610842610482565b5b81356108538482602086016107c5565b91505092915050565b60006020828403121561087257610871610478565b5b600082013567ffffffffffffffff8111156108905761088f61047d565b5b61089c8482850161082e565b91505092915050565b7f4e487b7100000000000000000000000000000000000000000000000000000000600052603260045260246000fd5b7f4e487b7100000000000000000000000000000000000000000000000000000000600052601160045260246000fd5b600061090e8261043a565b91507fffffffffffffffffffffffffffffffffffffffffffffffffffffffffffffffff82036109405761093f6108d4565b5b600182019050919050565b600081519050919050565b600082825260208201905092915050565b6000819050602082019050919050565b6109808161043a565b82525050565b60006109928383610977565b60208301905092915050565b6000602082019050919050565b60006109b68261094b565b6109c08185610956565b93506109cb83610967565b8060005b838110156109fc5781516109e38882610986565b97506109ee8361099e565b9250506001810190506109cf565b5085935050505092915050565b60006020820190508181036000830152610a2381846109ab565b905092915050565b600082825260208201905092915050565b7f616d6f756e74203e20494e495449414c5f42414c414e43450000000000000000600082015250565b6000610a72601883610a2b565b9150610a7d82610a3c565b602082019050919050565b60006020820190508181036000830152610aa181610a65565b9050919050565b7f6f7574206f6620626f756e640000000000000000000000000000000000000000600082015250565b6000610ade600c83610a2b565b9150610ae982610aa8565b602082019050919050565b60006020820190508181036000830152610b0d81610ad1565b9050919050565b6000610b1f8261043a565b9150610b2a8361043a565b9250828203905081811115610b4257610b416108d4565b5b9291505056fea264697066735822122085c9cb3eb68f3ac833a0f257416ca42cb2b94fc0cf6c309932d9b60a9026334164736f6c634300081b0033",
  "devdoc": {
    "kind": "dev",
    "methods": {
      "performUpkeep(bytes)": {
        "details": "The input to this method should not be trusted, and the caller of the method should not even be restricted to any single registry. Anyone should be able call it, and the input should be validated, there is no guarantee that the data passed in is the performData returned from checkUpkeep. This could happen due to malicious keepers, racing keepers, or simply a state change while the performUpkeep transaction is waiting for confirmation. Always validate the data passed in.",
        "params": {
          "performData": "is the data which was passed back from the checkData simulation. If it is encoded, it can easily be decoded into other types by calling `abi.decode`. This data should not be trusted, and should be validated against the contract's current state."
        }
      }
    },
    "version": 1
  },
  "userdoc": {
    "kind": "user",
    "methods": {
      "performUpkeep(bytes)": {
        "notice": "method that is actually executed by the keepers, via the registry. The data returned by the checkUpkeep simulation will be passed into this method to actually be executed."
      }
    },
    "version": 1
  },
  "storageLayout": {
    "storage": [
      {
        "astId": 33,
        "contract": "contracts/AutomationDemo.sol:AutomationDemo",
        "label": "balances",
        "offset": 0,
        "slot": "0",
        "type": "t_array(t_uint256)100_storage"
      }
    ],
    "types": {
      "t_array(t_uint256)100_storage": {
        "base": "t_uint256",
        "encoding": "inplace",
        "label": "uint256[100]",
        "numberOfBytes": "3200"
      },
      "t_uint256": {
        "encoding": "inplace",
        "label": "uint256",
        "numberOfBytes": "32"
      }
    }
  }
}